{
  "contractName": "GameStages",
  "abi": [
    {
      "constant": true,
      "inputs": [],
      "name": "stage",
      "outputs": [
        {
          "name": "",
          "type": "uint8"
        }
      ],
      "payable": false,
      "stateMutability": "view",
      "type": "function"
    },
    {
      "constant": false,
      "inputs": [
        {
          "name": "_stage",
          "type": "uint8"
        }
      ],
      "name": "atStage",
      "outputs": [
        {
          "name": "",
          "type": "bool"
        }
      ],
      "payable": false,
      "stateMutability": "nonpayable",
      "type": "function"
    },
    {
      "constant": false,
      "inputs": [],
      "name": "nextStage",
      "outputs": [],
      "payable": false,
      "stateMutability": "nonpayable",
      "type": "function"
    },
    {
      "constant": false,
      "inputs": [],
      "name": "getStage",
      "outputs": [
        {
          "name": "",
          "type": "uint8"
        }
      ],
      "payable": false,
      "stateMutability": "nonpayable",
      "type": "function"
    },
    {
      "constant": false,
      "inputs": [],
      "name": "backToStartStage",
      "outputs": [
        {
          "name": "",
          "type": "uint8"
        }
      ],
      "payable": false,
      "stateMutability": "nonpayable",
      "type": "function"
    }
  ],
  "bytecode": "0x608060405260008060006101000a81548160ff0219169083600181111561002257fe5b021790555034801561003357600080fd5b50610280806100436000396000f30060806040526004361061006d576000357c0100000000000000000000000000000000000000000000000000000000900463ffffffff16806333009c3d146100725780636008716a146100ba578063c040e6b8146100f3578063ee3743ab1461012c578063fcaa766414610143575b600080fd5b34801561007e57600080fd5b506100a0600480360381019080803560ff16906020019092919050505061017c565b604051808215151515815260200191505060405180910390f35b3480156100c657600080fd5b506100cf6101ba565b604051808260018111156100df57fe5b60ff16815260200191505060405180910390f35b3480156100ff57600080fd5b506101086101e1565b6040518082600181111561011857fe5b60ff16815260200191505060405180910390f35b34801561013857600080fd5b506101416101f3565b005b34801561014f57600080fd5b5061015861023e565b6040518082600181111561016857fe5b60ff16815260200191505060405180910390f35b600081600181111561018a57fe5b6000809054906101000a900460ff1660018111156101a457fe5b146101b05760006101b3565b60015b9050919050565b6000806000806101000a81548160ff021916908360018111156101d957fe5b021790555090565b6000809054906101000a900460ff1681565b60016000809054906101000a900460ff16600181111561020f57fe5b01600181111561021b57fe5b6000806101000a81548160ff0219169083600181111561023757fe5b0217905550565b60008060009054906101000a900460ff169050905600a165627a7a72305820c7f37e6e24bd451985e09b9886ac12378c072641ccb7b27efc414494c3ca3ee60029",
  "source": "pragma solidity 0.4.24;\n\ncontract GameStages {\n    enum Stages {\n        NotStarted,\n        Started\n    }\n    // This is the current stage.\n    Stages public stage = Stages.NotStarted;\n\n    function atStage(Stages _stage) public returns (bool) {\n        return (stage == _stage) ? true : false;\n    }\n\n    function nextStage() public {\n        stage = Stages(uint(stage) + 1);\n    }\n\n    function getStage() public returns (Stages) {\n        return stage;    \n    }\n\n    function backToStartStage() public returns (Stages) {\n        stage = Stages.NotStarted;\n    }\n}\n",
  "sourcePath": "/Users/viacheslav.troian/projects/blockchain-rock-paper-scissors/contracts/GameStages.sol",
  "compiler": {
    "name": "solc",
    "version": "0.4.24+commit.e67f0147.Emscripten.clang"
  },
  "schemaVersion": "2.0.1",
  "updatedAt": "2018-07-22T12:36:29.202Z"
}