{
  "contractName": "Game",
  "abi": [
    {
      "constant": false,
      "inputs": [
        {
          "name": "_stage",
          "type": "uint8"
        }
      ],
      "name": "atStage",
      "outputs": [
        {
          "name": "",
          "type": "bool"
        }
      ],
      "payable": false,
      "stateMutability": "nonpayable",
      "type": "function"
    },
    {
      "constant": true,
      "inputs": [],
      "name": "joinPrice",
      "outputs": [
        {
          "name": "",
          "type": "uint256"
        }
      ],
      "payable": false,
      "stateMutability": "view",
      "type": "function"
    },
    {
      "constant": false,
      "inputs": [],
      "name": "backToStartStage",
      "outputs": [
        {
          "name": "",
          "type": "uint8"
        }
      ],
      "payable": false,
      "stateMutability": "nonpayable",
      "type": "function"
    },
    {
      "constant": false,
      "inputs": [],
      "name": "renounceOwnership",
      "outputs": [],
      "payable": false,
      "stateMutability": "nonpayable",
      "type": "function"
    },
    {
      "constant": true,
      "inputs": [],
      "name": "getPlayers",
      "outputs": [
        {
          "name": "",
          "type": "address[]"
        },
        {
          "name": "",
          "type": "uint16[]"
        }
      ],
      "payable": false,
      "stateMutability": "view",
      "type": "function"
    },
    {
      "constant": true,
      "inputs": [],
      "name": "owner",
      "outputs": [
        {
          "name": "",
          "type": "address"
        }
      ],
      "payable": false,
      "stateMutability": "view",
      "type": "function"
    },
    {
      "constant": true,
      "inputs": [],
      "name": "stage",
      "outputs": [
        {
          "name": "",
          "type": "uint8"
        }
      ],
      "payable": false,
      "stateMutability": "view",
      "type": "function"
    },
    {
      "constant": false,
      "inputs": [],
      "name": "nextStage",
      "outputs": [],
      "payable": false,
      "stateMutability": "nonpayable",
      "type": "function"
    },
    {
      "constant": false,
      "inputs": [
        {
          "name": "_newOwner",
          "type": "address"
        }
      ],
      "name": "transferOwnership",
      "outputs": [],
      "payable": false,
      "stateMutability": "nonpayable",
      "type": "function"
    },
    {
      "constant": false,
      "inputs": [],
      "name": "getStage",
      "outputs": [
        {
          "name": "",
          "type": "uint8"
        }
      ],
      "payable": false,
      "stateMutability": "nonpayable",
      "type": "function"
    },
    {
      "payable": true,
      "stateMutability": "payable",
      "type": "fallback"
    },
    {
      "anonymous": false,
      "inputs": [
        {
          "indexed": false,
          "name": "winner",
          "type": "address"
        },
        {
          "indexed": false,
          "name": "money",
          "type": "uint256"
        }
      ],
      "name": "GetWinner",
      "type": "event"
    },
    {
      "anonymous": false,
      "inputs": [
        {
          "indexed": true,
          "name": "previousOwner",
          "type": "address"
        }
      ],
      "name": "OwnershipRenounced",
      "type": "event"
    },
    {
      "anonymous": false,
      "inputs": [
        {
          "indexed": true,
          "name": "previousOwner",
          "type": "address"
        },
        {
          "indexed": true,
          "name": "newOwner",
          "type": "address"
        }
      ],
      "name": "OwnershipTransferred",
      "type": "event"
    },
    {
      "constant": false,
      "inputs": [
        {
          "name": "_address",
          "type": "address"
        },
        {
          "name": "_bid",
          "type": "uint16"
        }
      ],
      "name": "MakeBid",
      "outputs": [],
      "payable": true,
      "stateMutability": "payable",
      "type": "function"
    },
    {
      "constant": false,
      "inputs": [],
      "name": "endGame",
      "outputs": [
        {
          "name": "",
          "type": "uint256"
        }
      ],
      "payable": false,
      "stateMutability": "nonpayable",
      "type": "function"
    }
  ],
  "bytecode": "0x60806040526000600560006101000a81548160ff0219169083600181111561002357fe5b021790555060006006556000600755336000806101000a81548173ffffffffffffffffffffffffffffffffffffffff021916908373ffffffffffffffffffffffffffffffffffffffff160217905550610e40806100816000396000f3006080604052600436106100ba576000357c0100000000000000000000000000000000000000000000000000000000900463ffffffff16806333009c3d146100bc5780633d7ee23b146101045780636008716a1461012f5780636cbc2ded14610168578063715018a6146101935780638b5b9ccc146101aa5780638da5cb5b1461025e578063adb33602146102b5578063c040e6b8146102f9578063ee3743ab14610332578063f2fde38b14610349578063fcaa76641461038c575b005b3480156100c857600080fd5b506100ea600480360381019080803560ff1690602001909291905050506103c5565b604051808215151515815260200191505060405180910390f35b34801561011057600080fd5b50610119610404565b6040518082815260200191505060405180910390f35b34801561013b57600080fd5b5061014461040a565b6040518082600181111561015457fe5b60ff16815260200191505060405180910390f35b34801561017457600080fd5b5061017d610432565b6040518082815260200191505060405180910390f35b34801561019f57600080fd5b506101a86105c1565b005b3480156101b657600080fd5b506101bf6106c3565b604051808060200180602001838103835285818151815260200191508051906020019060200280838360005b838110156102065780820151818401526020810190506101eb565b50505050905001838103825284818151815260200191508051906020019060200280838360005b8381101561024857808201518184015260208101905061022d565b5050505090500194505050505060405180910390f35b34801561026a57600080fd5b506102736107d4565b604051808273ffffffffffffffffffffffffffffffffffffffff1673ffffffffffffffffffffffffffffffffffffffff16815260200191505060405180910390f35b6102f7600480360381019080803573ffffffffffffffffffffffffffffffffffffffff169060200190929190803561ffff1690602001909291905050506107f9565b005b34801561030557600080fd5b5061030e61084c565b6040518082600181111561031e57fe5b60ff16815260200191505060405180910390f35b34801561033e57600080fd5b5061034761085f565b005b34801561035557600080fd5b5061038a600480360381019080803573ffffffffffffffffffffffffffffffffffffffff1690602001909291905050506108ac565b005b34801561039857600080fd5b506103a1610913565b604051808260018111156103b157fe5b60ff16815260200191505060405180910390f35b60008160018111156103d357fe5b600560009054906101000a900460ff1660018111156103ee57fe5b146103fa5760006103fd565b60015b9050919050565b60075481565b600080600560006101000a81548160ff0219169083600181111561042a57fe5b021790555090565b60008060008060006006541415801561044c575060065442115b156105bb5761045961092a565b9250823073ffffffffffffffffffffffffffffffffffffffff163103915061047f610955565b90508073ffffffffffffffffffffffffffffffffffffffff166108fc839081150290604051600060405180830381858888f193505050501580156104c7573d6000803e3d6000fd5b506000809054906101000a900473ffffffffffffffffffffffffffffffffffffffff1673ffffffffffffffffffffffffffffffffffffffff166108fc3073ffffffffffffffffffffffffffffffffffffffff16319081150290604051600060405180830381858888f19350505050158015610546573d6000803e3d6000fd5b507f0c3ce57003dee6a6900a6d26829f4a7b9246844991b81d2f41abe5898519229e8183604051808373ffffffffffffffffffffffffffffffffffffffff1673ffffffffffffffffffffffffffffffffffffffff1681526020018281526020019250505060405180910390a16105ba6109c9565b5b50505090565b6000809054906101000a900473ffffffffffffffffffffffffffffffffffffffff1673ffffffffffffffffffffffffffffffffffffffff163373ffffffffffffffffffffffffffffffffffffffff1614151561061c57600080fd5b6000809054906101000a900473ffffffffffffffffffffffffffffffffffffffff1673ffffffffffffffffffffffffffffffffffffffff167ff8df31144d9c2f0f6b59d69b8b98abd5459d07f2742c4df920b25aae33c6482060405160405180910390a260008060006101000a81548173ffffffffffffffffffffffffffffffffffffffff021916908373ffffffffffffffffffffffffffffffffffffffff160217905550565b606080600160028180548060200260200160405190810160405280929190818152602001828054801561074b57602002820191906000526020600020905b8160009054906101000a900473ffffffffffffffffffffffffffffffffffffffff1673ffffffffffffffffffffffffffffffffffffffff1681526020019060010190808311610701575b50505050509150808054806020026020016040519081016040528092919081815260200182805480156107c557602002820191906000526020600020906000905b82829054906101000a900461ffff1661ffff168152602001906002019060208260010104928301926001038202915080841161078c5790505b50505050509050915091509091565b6000809054906101000a900473ffffffffffffffffffffffffffffffffffffffff1681565b6706f05b59d3b200003411151561080f57600080fd5b6802b5e3af16b18800003410151561082657600080fd5b61083060006103c5565b1561083e5761083d6109ec565b5b6108488282610a07565b5050565b600560009054906101000a900460ff1681565b6001600560009054906101000a900460ff16600181111561087c57fe5b01600181111561088857fe5b600560006101000a81548160ff021916908360018111156108a557fe5b0217905550565b6000809054906101000a900473ffffffffffffffffffffffffffffffffffffffff1673ffffffffffffffffffffffffffffffffffffffff163373ffffffffffffffffffffffffffffffffffffffff1614151561090757600080fd5b61091081610abe565b50565b6000600560009054906101000a900460ff16905090565b6000600a3073ffffffffffffffffffffffffffffffffffffffff163181151561094f57fe5b04905090565b6000806000809150600190505b600280549050811015610988576109798282610bb8565b91508080600101915050610962565b60018281548110151561099757fe5b9060005260206000200160009054906101000a900473ffffffffffffffffffffffffffffffffffffffff169250505090565b6109d161040a565b506109da610cc6565b60006006819055506000600781905550565b3460078190555060b44201600681905550610a0561085f565b565b60018290806001815401808255809150509060018203906000526020600020016000909192909190916101000a81548173ffffffffffffffffffffffffffffffffffffffff021916908373ffffffffffffffffffffffffffffffffffffffff16021790555050600281908060018154018082558091505090600182039060005260206000209060109182820401919006600202909192909190916101000a81548161ffff021916908361ffff160217905550505050565b600073ffffffffffffffffffffffffffffffffffffffff168173ffffffffffffffffffffffffffffffffffffffff1614151515610afa57600080fd5b8073ffffffffffffffffffffffffffffffffffffffff166000809054906101000a900473ffffffffffffffffffffffffffffffffffffffff1673ffffffffffffffffffffffffffffffffffffffff167f8be0079c531659141344cd1fd0a4f28419497f9722a3daafe3b4186f6b6457e060405160405180910390a3806000806101000a81548173ffffffffffffffffffffffffffffffffffffffff021916908373ffffffffffffffffffffffffffffffffffffffff16021790555050565b6000806000600285815481101515610bcc57fe5b90600052602060002090601091828204019190066002029054906101000a900461ffff169150600284815481101515610c0157fe5b90600052602060002090601091828204019190066002029054906101000a900461ffff1690508061ffff168261ffff161415610c3f57849250610cbe565b60018261ffff161415610c695760038161ffff161415610c6157849250610cbe565b839250610cbe565b60028261ffff161415610c935760018161ffff161415610c8b57849250610cbe565b839250610cbe565b60038261ffff161415610cbd5760018161ffff161415610cb557839250610cbe565b849250610cbe565b5b505092915050565b60036001908054610cd8929190610cee565b5060046002908054610ceb929190610d40565b50565b828054828255906000526020600020908101928215610d2f5760005260206000209182015b82811115610d2e578254825591600101919060010190610d13565b5b509050610d3c9190610da0565b5090565b82805482825590600052602060002090600f01601090048101928215610d8f57600052602060002091600f016010900482015b82811115610d8e578254825591600101919060010190610d73565b5b509050610d9c9190610de3565b5090565b610de091905b80821115610ddc57600081816101000a81549073ffffffffffffffffffffffffffffffffffffffff021916905550600101610da6565b5090565b90565b610e1191905b80821115610e0d57600081816101000a81549061ffff021916905550600101610de9565b5090565b905600a165627a7a72305820f5fe56de2e3fba274e567dc3f7b5a3cff5a7c6fbb18b2ade70dc3462ca87c8310029",
  "source": "pragma solidity 0.4.24;\n\nimport \"./../installed_contracts/ownership/Ownable.sol\";\nimport \"./PlayerModel.sol\";\nimport \"./GameStages.sol\";\n\n\ncontract Game is Ownable, PlayerModel, GameStages {\n    uint private endTime = 0;\n    uint public joinPrice = 0;\n\n    // events not works on web3 1.0.0 with httpProvider\n    event GetWinner(address winner, uint money);\n\n    // -----------------------------------------\n    // modifiers\n    modifier paymentIsValid() {\n        require(msg.value > 0.5 ether);\n        require(msg.value < 50 ether);\n        _;\n    }\n\n    modifier roundEnded() {\n        if(endTime != 0 && block.timestamp > endTime) {\n            _;\n        }\n    }\n\n    // -----------------------------------------\n    // PUBLIC INTERFACE\n\n    // Accumulate some deposit\n    function() public payable {}\n\n    // Accumulate deposit from bids\n    function MakeBid(address _address, uint16 _bid) public payable paymentIsValid {\n        if(atStage(Stages.NotStarted)) {\n            _startRound();\n        }\n\n        _addPlayer(_address, _bid);\n    }\n\n    function endGame() public roundEnded returns(uint) {\n        uint fee = _getFee();\n        uint prize = this.balance - fee;\n        address winner = _getWinnerAddress();\n\n        winner.transfer(prize);\n        owner.transfer(this.balance);\n        emit GetWinner(winner, prize);\n        \n        _clearRound();\n    }\n    // -----------------------------------------\n    // internal methods\n\n    function _startRound() internal {\n        joinPrice = msg.value;\n        endTime = block.timestamp + 3 minutes;\n        nextStage();\n    }\n\n    function _clearRound() private {\n        backToStartStage();\n        _clearPlayers();\n        endTime = 0;\n        joinPrice = 0;\n    }\n\n    function _getFee() private returns(uint) {\n        // fee is 10%\n        return this.balance / 10;\n    }\n\n    function _getWinnerPrize(uint _fee) private returns(uint) {\n        return this.balance - _fee;\n    }\n\n    function _getWinnerAddress() private returns(address) {\n        uint winIndex = 0;\n\n        for (uint currentIndex = 1; currentIndex < bids.length; currentIndex++) {\n            winIndex = _compareTwoBidsByIndex(winIndex, currentIndex);\n        }\n\n        return addresses[winIndex];\n    }\n    \n    function _compareTwoBidsByIndex(uint index1, uint index2) private returns (uint) {\n        // rock -     1\n        // paper -    2\n        // scissors - 3\n        // algorithm - https://gist.github.com/joshfry/7327656\n        \n        uint16 bid1 = bids[index1];\n        uint16 bid2 = bids[index2];\n\n\n        if(bid1 == bid2) {\n            // @todo - get random winner\n            return index1;\n        }\n\n        if(bid1 == 1) {\n            if(bid2 == 3) {\n                return index1;\n            }\n            else {\n                return index2;\n            }\n        }\n        else if(bid1 == 2) {\n            if(bid2 == 1) {\n                return index1;   \n            }\n            else {\n                return index2;     \n            }\n        }\n        else if(bid1 == 3) {\n            if(bid2 == 1) {\n                return index2;\n            }\n            else {\n                return index1;  \n            }\n        }\n    }\n\n    // ---------\n\n    // function _generateRandom() private view returns (uint) {\n    //     uint rand = uint(keccak256(abi.encodePacked(block.timestamp)));\n    //     return rand % 1;\n    // }\n\n}\n",
  "sourcePath": "/Users/viacheslav.troian/projects/blockchain-rock-paper-scissors/contracts/Game.sol",
  "compiler": {
    "name": "solc",
    "version": "0.4.24+commit.e67f0147.Emscripten.clang"
  },
  "schemaVersion": "2.0.1",
  "updatedAt": "2018-07-22T22:13:48.343Z"
}