{
  "contractName": "Game",
  "abi": [
    {
      "constant": false,
      "inputs": [
        {
          "name": "_stage",
          "type": "uint8"
        }
      ],
      "name": "atStage",
      "outputs": [
        {
          "name": "",
          "type": "bool"
        }
      ],
      "payable": false,
      "stateMutability": "nonpayable",
      "type": "function"
    },
    {
      "constant": true,
      "inputs": [],
      "name": "joinPrice",
      "outputs": [
        {
          "name": "",
          "type": "uint256"
        }
      ],
      "payable": false,
      "stateMutability": "view",
      "type": "function"
    },
    {
      "constant": false,
      "inputs": [],
      "name": "backToStartStage",
      "outputs": [
        {
          "name": "",
          "type": "uint8"
        }
      ],
      "payable": false,
      "stateMutability": "nonpayable",
      "type": "function"
    },
    {
      "constant": false,
      "inputs": [],
      "name": "renounceOwnership",
      "outputs": [],
      "payable": false,
      "stateMutability": "nonpayable",
      "type": "function"
    },
    {
      "constant": true,
      "inputs": [],
      "name": "getPlayers",
      "outputs": [
        {
          "name": "",
          "type": "address[]"
        },
        {
          "name": "",
          "type": "uint16[]"
        }
      ],
      "payable": false,
      "stateMutability": "view",
      "type": "function"
    },
    {
      "constant": true,
      "inputs": [],
      "name": "owner",
      "outputs": [
        {
          "name": "",
          "type": "address"
        }
      ],
      "payable": false,
      "stateMutability": "view",
      "type": "function"
    },
    {
      "constant": true,
      "inputs": [],
      "name": "stage",
      "outputs": [
        {
          "name": "",
          "type": "uint8"
        }
      ],
      "payable": false,
      "stateMutability": "view",
      "type": "function"
    },
    {
      "constant": false,
      "inputs": [],
      "name": "nextStage",
      "outputs": [],
      "payable": false,
      "stateMutability": "nonpayable",
      "type": "function"
    },
    {
      "constant": false,
      "inputs": [
        {
          "name": "_newOwner",
          "type": "address"
        }
      ],
      "name": "transferOwnership",
      "outputs": [],
      "payable": false,
      "stateMutability": "nonpayable",
      "type": "function"
    },
    {
      "constant": false,
      "inputs": [],
      "name": "getStage",
      "outputs": [
        {
          "name": "",
          "type": "uint8"
        }
      ],
      "payable": false,
      "stateMutability": "nonpayable",
      "type": "function"
    },
    {
      "payable": true,
      "stateMutability": "payable",
      "type": "fallback"
    },
    {
      "anonymous": false,
      "inputs": [
        {
          "indexed": false,
          "name": "winner",
          "type": "address"
        },
        {
          "indexed": false,
          "name": "money",
          "type": "uint256"
        }
      ],
      "name": "GetWinner",
      "type": "event"
    },
    {
      "anonymous": false,
      "inputs": [
        {
          "indexed": true,
          "name": "previousOwner",
          "type": "address"
        }
      ],
      "name": "OwnershipRenounced",
      "type": "event"
    },
    {
      "anonymous": false,
      "inputs": [
        {
          "indexed": true,
          "name": "previousOwner",
          "type": "address"
        },
        {
          "indexed": true,
          "name": "newOwner",
          "type": "address"
        }
      ],
      "name": "OwnershipTransferred",
      "type": "event"
    },
    {
      "constant": false,
      "inputs": [
        {
          "name": "_address",
          "type": "address"
        },
        {
          "name": "_bid",
          "type": "uint16"
        }
      ],
      "name": "MakeBid",
      "outputs": [],
      "payable": true,
      "stateMutability": "payable",
      "type": "function"
    },
    {
      "constant": false,
      "inputs": [],
      "name": "endGame",
      "outputs": [
        {
          "name": "",
          "type": "uint256"
        }
      ],
      "payable": false,
      "stateMutability": "nonpayable",
      "type": "function"
    }
  ],
  "bytecode": "0x60806040526000600560006101000a81548160ff0219169083600181111561002357fe5b021790555060006006556000600755336000806101000a81548173ffffffffffffffffffffffffffffffffffffffff021916908373ffffffffffffffffffffffffffffffffffffffff160217905550610e27806100816000396000f3006080604052600436106100ba576000357c0100000000000000000000000000000000000000000000000000000000900463ffffffff16806333009c3d146100bc5780633d7ee23b146101045780636008716a1461012f5780636cbc2ded14610168578063715018a6146101935780638b5b9ccc146101aa5780638da5cb5b1461025e578063adb33602146102b5578063c040e6b8146102f9578063ee3743ab14610332578063f2fde38b14610349578063fcaa76641461038c575b005b3480156100c857600080fd5b506100ea600480360381019080803560ff1690602001909291905050506103c5565b604051808215151515815260200191505060405180910390f35b34801561011057600080fd5b50610119610404565b6040518082815260200191505060405180910390f35b34801561013b57600080fd5b5061014461040a565b6040518082600181111561015457fe5b60ff16815260200191505060405180910390f35b34801561017457600080fd5b5061017d610432565b6040518082815260200191505060405180910390f35b34801561019f57600080fd5b506101a86105a7565b005b3480156101b657600080fd5b506101bf6106a9565b604051808060200180602001838103835285818151815260200191508051906020019060200280838360005b838110156102065780820151818401526020810190506101eb565b50505050905001838103825284818151815260200191508051906020019060200280838360005b8381101561024857808201518184015260208101905061022d565b5050505090500194505050505060405180910390f35b34801561026a57600080fd5b506102736107ba565b604051808273ffffffffffffffffffffffffffffffffffffffff1673ffffffffffffffffffffffffffffffffffffffff16815260200191505060405180910390f35b6102f7600480360381019080803573ffffffffffffffffffffffffffffffffffffffff169060200190929190803561ffff1690602001909291905050506107df565b005b34801561030557600080fd5b5061030e610832565b6040518082600181111561031e57fe5b60ff16815260200191505060405180910390f35b34801561033e57600080fd5b50610347610845565b005b34801561035557600080fd5b5061038a600480360381019080803573ffffffffffffffffffffffffffffffffffffffff169060200190929190505050610892565b005b34801561039857600080fd5b506103a16108f9565b604051808260018111156103b157fe5b60ff16815260200191505060405180910390f35b60008160018111156103d357fe5b600560009054906101000a900460ff1660018111156103ee57fe5b146103fa5760006103fd565b60015b9050919050565b60075481565b600080600560006101000a81548160ff0219169083600181111561042a57fe5b021790555090565b600080600080610440610910565b9250823073ffffffffffffffffffffffffffffffffffffffff163103915061046661093b565b90508073ffffffffffffffffffffffffffffffffffffffff166108fc839081150290604051600060405180830381858888f193505050501580156104ae573d6000803e3d6000fd5b506000809054906101000a900473ffffffffffffffffffffffffffffffffffffffff1673ffffffffffffffffffffffffffffffffffffffff166108fc3073ffffffffffffffffffffffffffffffffffffffff16319081150290604051600060405180830381858888f1935050505015801561052d573d6000803e3d6000fd5b507f0c3ce57003dee6a6900a6d26829f4a7b9246844991b81d2f41abe5898519229e8183604051808373ffffffffffffffffffffffffffffffffffffffff1673ffffffffffffffffffffffffffffffffffffffff1681526020018281526020019250505060405180910390a16105a16109af565b50505090565b6000809054906101000a900473ffffffffffffffffffffffffffffffffffffffff1673ffffffffffffffffffffffffffffffffffffffff163373ffffffffffffffffffffffffffffffffffffffff1614151561060257600080fd5b6000809054906101000a900473ffffffffffffffffffffffffffffffffffffffff1673ffffffffffffffffffffffffffffffffffffffff167ff8df31144d9c2f0f6b59d69b8b98abd5459d07f2742c4df920b25aae33c6482060405160405180910390a260008060006101000a81548173ffffffffffffffffffffffffffffffffffffffff021916908373ffffffffffffffffffffffffffffffffffffffff160217905550565b606080600160028180548060200260200160405190810160405280929190818152602001828054801561073157602002820191906000526020600020905b8160009054906101000a900473ffffffffffffffffffffffffffffffffffffffff1673ffffffffffffffffffffffffffffffffffffffff16815260200190600101908083116106e7575b50505050509150808054806020026020016040519081016040528092919081815260200182805480156107ab57602002820191906000526020600020906000905b82829054906101000a900461ffff1661ffff16815260200190600201906020826001010492830192600103820291508084116107725790505b50505050509050915091509091565b6000809054906101000a900473ffffffffffffffffffffffffffffffffffffffff1681565b6706f05b59d3b20000341115156107f557600080fd5b6802b5e3af16b18800003410151561080c57600080fd5b61081660006103c5565b15610824576108236109d2565b5b61082e82826109ee565b5050565b600560009054906101000a900460ff1681565b6001600560009054906101000a900460ff16600181111561086257fe5b01600181111561086e57fe5b600560006101000a81548160ff0219169083600181111561088b57fe5b0217905550565b6000809054906101000a900473ffffffffffffffffffffffffffffffffffffffff1673ffffffffffffffffffffffffffffffffffffffff163373ffffffffffffffffffffffffffffffffffffffff161415156108ed57600080fd5b6108f681610aa5565b50565b6000600560009054906101000a900460ff16905090565b6000600a3073ffffffffffffffffffffffffffffffffffffffff163181151561093557fe5b04905090565b6000806000809150600190505b60028054905081101561096e5761095f8282610b9f565b91508080600101915050610948565b60018281548110151561097d57fe5b9060005260206000200160009054906101000a900473ffffffffffffffffffffffffffffffffffffffff169250505090565b6109b761040a565b506109c0610cad565b60006006819055506000600781905550565b3460078190555061025842016006819055506109ec610845565b565b60018290806001815401808255809150509060018203906000526020600020016000909192909190916101000a81548173ffffffffffffffffffffffffffffffffffffffff021916908373ffffffffffffffffffffffffffffffffffffffff16021790555050600281908060018154018082558091505090600182039060005260206000209060109182820401919006600202909192909190916101000a81548161ffff021916908361ffff160217905550505050565b600073ffffffffffffffffffffffffffffffffffffffff168173ffffffffffffffffffffffffffffffffffffffff1614151515610ae157600080fd5b8073ffffffffffffffffffffffffffffffffffffffff166000809054906101000a900473ffffffffffffffffffffffffffffffffffffffff1673ffffffffffffffffffffffffffffffffffffffff167f8be0079c531659141344cd1fd0a4f28419497f9722a3daafe3b4186f6b6457e060405160405180910390a3806000806101000a81548173ffffffffffffffffffffffffffffffffffffffff021916908373ffffffffffffffffffffffffffffffffffffffff16021790555050565b6000806000600285815481101515610bb357fe5b90600052602060002090601091828204019190066002029054906101000a900461ffff169150600284815481101515610be857fe5b90600052602060002090601091828204019190066002029054906101000a900461ffff1690508061ffff168261ffff161415610c2657849250610ca5565b60018261ffff161415610c505760038161ffff161415610c4857849250610ca5565b839250610ca5565b60028261ffff161415610c7a5760018161ffff161415610c7257849250610ca5565b839250610ca5565b60038261ffff161415610ca45760018161ffff161415610c9c57839250610ca5565b849250610ca5565b5b505092915050565b60036001908054610cbf929190610cd5565b5060046002908054610cd2929190610d27565b50565b828054828255906000526020600020908101928215610d165760005260206000209182015b82811115610d15578254825591600101919060010190610cfa565b5b509050610d239190610d87565b5090565b82805482825590600052602060002090600f01601090048101928215610d7657600052602060002091600f016010900482015b82811115610d75578254825591600101919060010190610d5a565b5b509050610d839190610dca565b5090565b610dc791905b80821115610dc357600081816101000a81549073ffffffffffffffffffffffffffffffffffffffff021916905550600101610d8d565b5090565b90565b610df891905b80821115610df457600081816101000a81549061ffff021916905550600101610dd0565b5090565b905600a165627a7a72305820efcac0c3759792341b26d6b9cabf12a61adf94eecc5a85e89a3d9afd57e8269c0029",
  "source": "pragma solidity 0.4.24;\n\nimport \"./../installed_contracts/ownership/Ownable.sol\";\nimport \"./PlayerModel.sol\";\nimport \"./GameStages.sol\";\n\n\ncontract Game is Ownable, PlayerModel, GameStages {\n    uint private endTime = 0;\n    uint public joinPrice = 0;\n\n    // events not works on web3 1.0.0 with httpProvider\n    event GetWinner(address winner, uint money);\n\n    // -----------------------------------------\n    // modifiers\n    modifier paymentIsValid() {\n        require(msg.value > 0.5 ether);\n        require(msg.value < 50 ether);\n        _;\n    }\n\n    // -----------------------------------------\n    // PUBLIC INTERFACE\n\n    // Accumulate some deposit\n    function() public payable {}\n\n    // Accumulate deposit from bids\n    function MakeBid(address _address, uint16 _bid) public payable paymentIsValid {\n        if(atStage(Stages.NotStarted)) {\n            _startRound();\n        }\n\n        _addPlayer(_address, _bid);\n    }\n\n    function endGame() public returns(uint) {\n        uint fee = _getFee();\n        uint prize = this.balance - fee;\n        address winner = _getWinnerAddress();\n\n        winner.transfer(prize);\n        owner.transfer(this.balance);\n        emit GetWinner(winner, prize);\n        \n        _clearRound();\n    }\n    // -----------------------------------------\n    // internal methods\n\n    function _startRound() internal {\n        joinPrice = msg.value;\n        endTime = block.timestamp + 10 minutes;\n        nextStage();\n    }\n\n    function _clearRound() private {\n        backToStartStage();\n        _clearPlayers();\n        endTime = 0;\n        joinPrice = 0;\n    }\n\n    function _getFee() private returns(uint) {\n        // fee is 10%\n        return this.balance / 10;\n    }\n\n    function _getWinnerPrize(uint _fee) private returns(uint) {\n        return this.balance - _fee;\n    }\n\n    function _getWinnerAddress() private returns(address) {\n        uint winIndex = 0;\n\n        for (uint currentIndex = 1; currentIndex < bids.length; currentIndex++) {\n            winIndex = _compareTwoBidsByIndex(winIndex, currentIndex);\n        }\n\n        return addresses[winIndex];\n    }\n    \n    function _compareTwoBidsByIndex(uint index1, uint index2) private returns (uint) {\n        // rock -     1\n        // paper -    2\n        // scissors - 3\n        // algorithm - https://gist.github.com/joshfry/7327656\n        \n        uint16 bid1 = bids[index1];\n        uint16 bid2 = bids[index2];\n\n\n        if(bid1 == bid2) {\n            // @todo - get random winner\n            return index1;\n        }\n\n        if(bid1 == 1) {\n            if(bid2 == 3) {\n                return index1;\n            }\n            else {\n                return index2;\n            }\n        }\n        else if(bid1 == 2) {\n            if(bid2 == 1) {\n                return index1;   \n            }\n            else {\n                return index2;     \n            }\n        }\n        else if(bid1 == 3) {\n            if(bid2 == 1) {\n                return index2;\n            }\n            else {\n                return index1;  \n            }\n        }\n    }\n\n    // ---------\n\n    // function _generateRandom() private view returns (uint) {\n    //     uint rand = uint(keccak256(abi.encodePacked(block.timestamp)));\n    //     return rand % 1;\n    // }\n\n}\n",
  "sourcePath": "/Users/viacheslav.troian/projects/blockchain-rock-paper-scissors/contracts/Game.sol",
  "compiler": {
    "name": "solc",
    "version": "0.4.24+commit.e67f0147.Emscripten.clang"
  },
  "schemaVersion": "2.0.1",
  "updatedAt": "2018-07-22T12:36:29.533Z"
}