{
  "contractName": "PlayerIterator",
  "abi": [
    {
      "constant": false,
      "inputs": [
        {
          "name": "indexes",
          "type": "uint256[]"
        }
      ],
      "name": "getPeople",
      "outputs": [
        {
          "name": "",
          "type": "address[]"
        },
        {
          "name": "",
          "type": "uint8[]"
        }
      ],
      "payable": false,
      "stateMutability": "nonpayable",
      "type": "function"
    }
  ],
  "bytecode": "0x608060405234801561001057600080fd5b506102e5806100206000396000f300608060405260043610610041576000357c0100000000000000000000000000000000000000000000000000000000900463ffffffff1680636159330f14610046575b600080fd5b34801561005257600080fd5b506100aa60048036038101908080359060200190820180359060200190808060200260200160405190810160405280939291908181526020018383602002808284378201915050505050509192919290505050610149565b604051808060200180602001838103835285818151815260200191508051906020019060200280838360005b838110156100f15780820151818401526020810190506100d6565b50505050905001838103825284818151815260200191508051906020019060200280838360005b83811015610133578082015181840152602081019050610118565b5050505090500194505050505060405180910390f35b60608060608060008086516040519080825280602002602001820160405280156101825781602001602082028038833980820191505090505b50935086516040519080825280602002602001820160405280156101b55781602001602082028038833980820191505090505b509250600091505b86518210156102aa57600087838151811015156101d657fe5b906020019060200201518154811015156101ec57fe5b9060005260206000200190508060000160009054906101000a900473ffffffffffffffffffffffffffffffffffffffff16848381518110151561022b57fe5b9060200190602002019073ffffffffffffffffffffffffffffffffffffffff16908173ffffffffffffffffffffffffffffffffffffffff16815250508060000160149054906101000a900460ff16838381518110151561028757fe5b9060200190602002019060ff16908160ff168152505081806001019250506101bd565b838395509550505050509150915600a165627a7a72305820a1502cc9745ff19ec6e08b7819bf09f493108aff1220a562277aa75b94ef28a80029",
  "source": "pragma solidity 0.4.24;\n\nimport \"./../installed_contracts/ownership/Ownable.sol\";\n\ncontract PlayerIterator {\n    struct Player {\n        address addr;\n        uint8 bid;\n    }\n    \n    Player[] players;\n    \n    function getPeople(uint[] indexes)\n        public\n        returns (address[], uint8[])\n    {\n        address[] memory addrs = new address[](indexes.length);\n        uint8[]   memory bids = new uint8[](indexes.length);\n        \n        for (uint i = 0; i < indexes.length; i++) {\n            Player storage person = players[indexes[i]];\n            addrs[i] = person.addr;\n            bids[i] = person.bid;\n        }\n        \n        return (addrs, bids);\n    }\n}\n\ncontract Game is Ownable, PlayerIterator {\n    enum Stages {\n        NotStarted,\n        Started,\n        EndRound\n    }\n    // This is the current stage.\n    Stages public stage = Stages.NotStarted;\n\n    uint public endTime;\n    mapping(address => uint8) public players;\n    uint public joinPrice;\n\n    // event Transfer(address indexed _from, address indexed _to, uint256 _value);\n\n    // function update(uint newBalance) public {\n    //     bank[msg.sender] = newBalance;\n    // }\n\n    // -----------------------------------------\n    // public methods\n\n    // Accumulate some deposit\n    function() payable public {\n        // @todo - check if value correct with modifier(if game not starded - value is ok, if started check if ==)\n        // require(msg.value > 1 ether);\n\n        if(atStage(Stages.NotStarted)) {\n            startGame(msg.value);\n        } \n\n        // @todo - get bid (0- rock, 1- siccors, -1- paper)\n        // addParticipant(msg.sender, bid);\n        \n    }\n\n    function getContractBalance() public returns (uint) {\n        return this.balance;\n    }\n\n    // -----------------------------------------\n    // internal methods\n    // modifier atStage(Stages _stage) {\n    //     require(\n    //         stage == _stage,\n    //         \"Function cannot be called at this time.\"\n    //     );\n    //     _;\n    // }\n\n    function atStage(Stages _stage) private returns (bool) {\n        return (stage == _stage) ? true : false;\n    }\n\n    function nextStage() internal {\n        stage = Stages(uint(stage) + 1);\n    }\n\n    function startGame(uint bid) internal {\n        joinPrice = bid;\n        endTime = block.timestamp + 10 minutes;\n        nextStage();\n    }\n\n    function addParticipant(address _address, uint8 bid) internal {\n        players[_address] = bid;\n    }\n\n    // -----------------------------------------\n    // test\n    function goToNext() public returns (Stages) {\n        nextStage();\n        return stage;    \n    }\n\n}\n",
  "sourcePath": "/Users/viacheslav.troian/projects/bc-game/contracts/Game.sol",
  "compiler": {
    "name": "solc",
    "version": "0.4.24+commit.e67f0147.Emscripten.clang"
  },
  "schemaVersion": "2.0.1",
  "updatedAt": "2018-07-11T21:41:30.974Z"
}