{
  "contractName": "PlayerModel",
  "abi": [
    {
      "constant": true,
      "inputs": [],
      "name": "getPlayers",
      "outputs": [
        {
          "name": "",
          "type": "address[]"
        },
        {
          "name": "",
          "type": "uint16[]"
        }
      ],
      "payable": false,
      "stateMutability": "view",
      "type": "function"
    }
  ],
  "bytecode": "0x608060405234801561001057600080fd5b50610237806100206000396000f300608060405260043610610041576000357c0100000000000000000000000000000000000000000000000000000000900463ffffffff1680638b5b9ccc14610046575b600080fd5b34801561005257600080fd5b5061005b6100fa565b604051808060200180602001838103835285818151815260200191508051906020019060200280838360005b838110156100a2578082015181840152602081019050610087565b50505050905001838103825284818151815260200191508051906020019060200280838360005b838110156100e45780820151818401526020810190506100c9565b5050505090500194505050505060405180910390f35b606080600060018180548060200260200160405190810160405280929190818152602001828054801561018257602002820191906000526020600020905b8160009054906101000a900473ffffffffffffffffffffffffffffffffffffffff1673ffffffffffffffffffffffffffffffffffffffff1681526020019060010190808311610138575b50505050509150808054806020026020016040519081016040528092919081815260200182805480156101fc57602002820191906000526020600020906000905b82829054906101000a900461ffff1661ffff16815260200190600201906020826001010492830192600103820291508084116101c35790505b505050505090509150915090915600a165627a7a72305820258f452f06cf5fbd7173b00632d8451a95e2376d89f3bdb74cf69663fff2af7b0029",
  "source": "pragma solidity 0.4.24;\n\ncontract PlayerModel {\n    // struct Player {\n    //     address addr;\n    //     bytes32 bid;\n    // }\n    \n    // Player[] public players;\n    \n    // function getPlayers() public view returns (address[], bytes32[]) {\n    //     address[] memory addrs = new address[](players.length);\n    //     bytes32[] memory bids = new bytes32[](players.length);\n        \n    //     for (uint i = 0; i < players.length; i++) {\n    //         Player storage person = players[i];\n    //         addrs[i] = person.addr;\n    //         bids[i] = person.bid;\n    //     }\n        \n    //     return (addrs, bids);\n    // }\n\n    // function addPlayer() public {\n    //     players.push(Player({\n    //         addr: msg.sender,\n    //         bid: 0\n    //     }));\n    // }\n\n    address[] internal addresses;\n    uint16[] internal bids;\n\n    function getPlayers() public view returns(address[], uint16[]) {\n        return (addresses, bids);\n    }\n\n    function _addPlayer(address _address, uint16 _bid) internal {\n        addresses.push(_address);\n        bids.push(_bid);\n    }\n\n    address[] private emtyAddresses;\n    uint16[] private emptyBids;\n    function _clearPlayers() internal {\n        addresses = emtyAddresses;\n        bids = emptyBids;\n    }\n}",
  "sourcePath": "/Users/viacheslav.troian/projects/blockchain-rock-paper-scissors/contracts/PlayerModel.sol",
  "compiler": {
    "name": "solc",
    "version": "0.4.24+commit.e67f0147.Emscripten.clang"
  },
  "schemaVersion": "2.0.1",
  "updatedAt": "2018-07-22T22:13:48.026Z"
}